:020000040800F2
:1000000000500020311500083506000837060008AA
:10001000390600083B0600083D0600080000000005
:100020000000000000000000000000003F06000883
:1000300041060008000000004306000845060008CD
:100040007915000879150008791500087915000858
:100050007915000879150008791500087915000848
:100060007915000879150008791500087915000838
:100070007915000879150008791500087915000828
:100080007915000879150008791500087915000818
:100090007915000879150008791500087915000808
:1000A00079150008791500087915000879150008F8
:1000B0004D06000879150008791500087915000823
:1000C00079150008791500087915000879150008D8
:1000D00079150008791500087915000879150008C8
:1000E000791500087915000879150008000000004E
:1000F0000000000000000000000000000000000000
:0C01000000000000000000005FF808F1A3
:10010C0010B5054C237833B9044B13B10448AFF345
:10011C0000800123237010BD0C00002000000000A3
:10012C00D415000808B5034B1BB103490348AFF3C2
:10013C00008008BD0000000010000020D41500084D
:10014C002DE9F04188B0002404940594069407949A
:10015C002A4B9A6942F010029A619A6902F01002D5
:10016C000092009A9A6942F020029A619A6902F010
:10017C0020020192019A9A6942F008029A619A69E6
:10018C0002F008020292029A9A6942F004029A6101
:10019C009B6903F004030393039BDFF864802246FE
:1001AC004FF40051404601F040F9164D22464FF4F1
:1001BC004041284601F039F94FF4005304930126CD
:1001CC00059606940227079704A9404601F014F8F7
:1001DC004FF4405304930594069604A9284601F065
:1001EC000BF84FF44043049305960694079704A923
:1001FC00284601F001F808B0BDE8F081001002407B
:10020C0000100140000C014008B500F0BDF908BD1C
:10021C0072B6FEE700B587B00023029303930493F4
:10022C0005930093019314484FF0804202604722DB
:10023C004260836040F2E732C260036180238361D5
:10024C0000F0A2FB90B94FF48053029302A90A4824
:10025C0000F0D2FB60B90023009301936946064875
:10026C0000F04AFC30B907B05DF804FBFFF7D0FF93
:10027C00FFF7CEFFFFF7CCFF2800002000B591B0B0
:10028C002822002106A801F097F90023019302937C
:10029C00039304930593012206924FF48033079342
:1002AC000A9202220D920E934FF4E0130F9306A8BC
:1002BC0000F0BAFC80B90F230193022102910023B4
:1002CC0003934FF480620492059301A800F0DEFEC4
:1002DC0020B911B05DF804FBFFF79AFFFFF798FF08
:1002EC0008B500F067FCFFF7C9FFFFF729FFFFF720
:1002FC0091FF024800F018FAFEE700BF280000202A
:10030C0010B5012811D002281DD000B110BD154C1C
:10031C0000224FF48041204601F087F800224FF470
:10032C000041204601F081F8F0E70E4C00224FF41A
:10033C000041204601F079F801224FF4804120461B
:10034C0001F073F8E2E7074C00224FF4804120469D
:10035C0001F06BF801224FF40041204601F065F8E2
:10036C00D4E700BF000C014010B5044601224FF445
:10037C0000510E4801F059F8012C08D0022C0DD078
:10038C000B4B02221A700120FFF7BAFF10BD084B6D
:10039C0001221A700220FFF7B3FFF7E7044B022289
:1003AC001A700120FFF7ACFFF0E700BF001001400E
:1003BC0000000020012800D0704708B50020FFF78E
:1003CC009FFF054B03221A7000F012FC034B1860C0
:1003DC000220FFF795FF08BD0000002074000020EC
:1003EC00022800D0704708B50020FFF789FF054BA5
:1003FC0004221A7000F0FCFB034B18600120FFF77D
:10040C007FFF08BD000000207400002038B50546B1
:10041C0000F0EEFB174B1C68041B42F210739C425D
:10042C0002D8022D04D038BD134B08221A70FAE7FB
:10043C000020FFF765FF114B1C60114B1B6853B973
:10044C000D4B04221A7000F0D3FB0A4B18600120EC
:10045C00FFF756FFE7E7084B05221A700120FFF75C
:10046C004FFF00F0C5FB064B1B6800EB5300054B20
:10047C001860D8E7740000200000002080000020E5
:10048C007C0000207800002038B5054600F0B0FB59
:10049C00174B1C68041B42F210739C4202D8012DAE
:1004AC0004D038BD134B08221A70FAE70020FFF76E
:1004BC0027FF114B1C60114B1B6853B90D4B0322CA
:1004CC001A7000F095FB0A4B18600220FFF718FF1A
:1004DC00E7E7084B05221A700220FFF711FF00F026
:1004EC0087FB064B1B6800EB5300054B1860D8E7E5
:1004FC0074000020000000207C0000208000002000
:10050C007800002008B500F073FB064B1B6898427E
:10051C0000D808BD044B06221A700020FFF7F0FE2D
:10052C00F7E700BF780000200000002070B5002421
:10053C00254601E00134E4B2142C08D04FF480516C
:10054C00104800F06BFF0028F4D10125F2E70024DD
:10055C00264601E00134E4B2142C08D04FF40051CB
:10056C00084800F05BFF0028F4D10126F2E705B142
:10057C0026B90DB926B93546284670BD0325FBE7CB
:10058C000225F9E7000C014010B5FFF7CFFF044638
:10059C0003280AD0214B1B78082B10D8DFE803F076
:1005AC000C18141C202428102F000020FFF7A8FE84
:1005BC001A4B08221A70EDE70020FFF7A1FE10BDC0
:1005CC002046FFF7D1FEFAE72046FFF7F3FEF6E7E9
:1005DC002046FFF705FFF2E72046FFF717FFEEE78F
:1005EC002046FFF751FFEAE72046FFF78BFFE6E7CF
:1005FC0000224FF400510A4800F017FFDFE7094BC7
:10060C001B7823B1074A137801331370D7E74FF4E3
:10061C000051034800F00FFFF4E700BF000000207A
:10062C000010014070000020FEE7FEE7FEE7FEE749
:10063C00FEE770477047704708B500F0CDFA08BD6B
:10064C0008B5024800F0A8F808BD00BF280000203B
:10065C0082B00E4B9A6942F001029A619A6902F0DB
:10066C0001020092009ADA6942F08052DA61DB6989
:10067C0003F080530193019B054A536823F0E06318
:10068C0043F00073536002B0704700BF001002408B
:10069C00000001400368B3F1804F00D0704700B5F3
:1006AC0083B003F50433DA6942F00102DA61DB69E5
:1006BC0003F001030193019B002211461C2000F062
:1006CC00D5FE1C2000F00AFF03B05DF804FB10B44B
:1006DC00036A046A24F001040462846924F0F00CB7
:1006EC004CEA021223F00A030B438261036210BC32
:1006FC00704710B4036A046A24F01004046284691D
:10070C0024F4704C4CEA023223F0A00343EA0113A8
:10071C008261036210BC7047836823F070030B4343
:10072C0043F007038360704790F83D30DBB2012B38
:10073C0027D1022380F83D300268D36843F00103CF
:10074C00D3600368114A934210D0B3F1804F0DD09F
:10075C00A2F59432934209D002F58062934205D0FF
:10076C001A6842F001021A60002070479A6802F081
:10077C000702062A07D01A6842F001021A6000200C
:10078C007047012070470020704700BF002C0140CB
:10079C00704770477047704710B5044603681A6974
:1007AC0012F0020F11D0DA6812F0020F0DD06FF0B8
:1007BC0002021A610123037703689B6913F0030F8C
:1007CC0070D0FFF7E6FF0023237723681A6912F035
:1007DC00040F12D0DA6812F0040F0ED06FF004027E
:1007EC001A610223237723689B6913F4407F5FD03F
:1007FC002046FFF7CEFF0023237723681A6912F0F7
:10080C00080F12D0DA6812F0080F0ED06FF0080241
:10081C001A61042323772368DB6913F0030F4ED08E
:10082C002046FFF7B6FF0023237723681A6912F0DE
:10083C00100F12D0DA6812F0100F0ED06FF01002F9
:10084C001A61082323772368DB6913F4407F3DD0BA
:10085C002046FFF79EFF0023237723681A6912F0C6
:10086C00010F03D0DA6812F0010F36D123681A6930
:10087C0012F0800F03D0DA6812F0800F34D12368A5
:10088C001A6912F0400F03D0DA6812F0400F32D11F
:10089C0023681A6912F0200F03D0DA6812F0200FC7
:1008AC0030D110BDFFF774FF2046FFF773FF8AE7C6
:1008BC002046FFF76DFF2046FFF76CFF9BE72046B5
:1008CC00FFF766FF2046FFF765FFACE72046FFF712
:1008DC005FFF2046FFF75EFFBDE76FF001021A6174
:1008EC002046FFF791FCC1E76FF080021A612046A9
:1008FC0000F039F9C3E76FF040021A612046FFF7A8
:10090C004AFFC5E76FF020021A61204600F02AF971
:10091C00C7E7000003681B4A90420AD0B0F1804F31
:10092C0007D0A2F59432904203D002F58062904237
:10093C0003D123F070034A681343124A90420AD041
:10094C00B0F1804F07D0A2F59432904203D002F55B
:10095C008062904203D123F44073CA68134323F09E
:10096C0080034A69134303608B68C3620B6883621C
:10097C00044B984202D00123436170470B69036317
:10098C00F9E700BF002C014040B310B5044690F8C5
:10099C003D30F3B1022384F83D30214651F8040B6D
:1009AC00FFF7B8FF012384F8463084F83E3084F812
:1009BC003F3084F8403084F8413084F8423084F879
:1009CC00433084F8443084F8453084F83D300020BE
:1009DC0010BD80F83C30FFF75DFEDBE7012070476F
:1009EC0010B4846824F47F4C42EA03220A4342EA9E
:1009FC000C02826010BC704790F83C30012B78D010
:100A0C0010B50446012380F83C30022380F83D30B9
:100A1C000268936823F47F4323F0770393600B6899
:100A2C00602B4CD029D8402B54D00CD9502B22D130
:100A3C00CA6849680068FFF74AFE50212068FFF732
:100A4C006BFE002005E0202B0DD009D9302B0AD0ED
:100A5C000120012384F83D30002384F83C3010BD84
:100A6C000BB1102B05D119462068FFF755FE00205D
:100A7C00EFE70120EDE70120EBE7B3F5805F34D021
:100A8C00B3F5005F0CD1CB684A6889680068FFF742
:100A9C00A7FF2268936843F4804393600020D8E753
:100AAC00702B24D1CB684A6889680068FFF798FFDF
:100ABC002268936843F0770393600020C9E7CA6803
:100ACC0049680068FFF715FE60212068FFF724FED7
:100ADC000020BEE7CA6849680068FFF7F8FD4021AE
:100AEC002068FFF719FE0020B3E70020B1E70120D2
:100AFC00AFE702207047000090F83C30012B2CD05F
:100B0C0010B4012380F83C30022380F83D30036898
:100B1C005A689C6822F0700C0A6842EA0C025A600F
:100B2C0003680F4A93420AD0B3F1804F07D0A2F565
:100B3C009432934203D002F58062934204D124F0A4
:100B4C0080044A6814439C60012380F83D300023E4
:100B5C0080F83C30184610BC70470220704700BF2C
:100B6C00002C01407047704710B504460E4B1878A6
:100B7C004FF47A73B3FBF0F30C4A1068B0FBF3F04C
:100B8C0000F0BAFC68B90F2C01D901200AE0002250
:100B9C0021464FF0FF3000F069FC054B1C60002033
:100BAC0000E0012010BD00BF010000200800002063
:100BBC000400002008B5074A136843F010031360C3
:100BCC00032000F041FC0F20FFF7CEFFFFF740FDA4
:100BDC00002008BD00200240034A1168034B1B781B
:100BEC000B441360704700BF8400002001000020FC
:100BFC00014B1868704700BF8400002082B0084B7E
:100C0C001B68084AA2FB03235B0A00FB03F3019356
:100C1C0000BF019B5A1E0192002BF9D102B0704704
:100C2C0008000020D34D6210002800F0F18170B54F
:100C3C0082B00446036813F0010F2CD0994B5B680B
:100C4C0003F00C03042B1DD0964B5B6803F00C03D4
:100C5C00082B12D06368B3F5803F41D0002B55D1DF
:100C6C0003F1804303F504331A6822F480321A60CE
:100C7C001A6822F480221A6037E08A4B5B6813F4FE
:100C8C00803FE7D0874B1B6813F4003F03D06368A9
:100C9C00002B00F0BF81236813F0020F75D0814B3D
:100CAC005B6813F00C0F5FD07E4B5B6803F00C039A
:100CBC00082B54D02369002B00F08A807A4B012238
:100CCC001A60FFF795FF0546764B1B6813F0020F71
:100CDC0075D1FFF78DFF401B0228F5D903209EE14B
:100CEC00704A136843F480331360636843B3FFF7AF
:100CFC007FFF05466B4B1B6813F4003FCBD1FFF70E
:100D0C0077FF401B6428F5D9032088E1B3F5A02FA9
:100D1C0009D0644B1A6822F480321A601A6822F4E3
:100D2C0080221A60E1E703F18043A3F53C331A6893
:100D3C0042F480221A601A6842F480321A60D4E7B6
:100D4C00FFF756FF0546574B1B6813F4003FA2D024
:100D5C00FFF74EFF401B6428F5D903205FE1514B90
:100D6C005B6813F4803FA5D14E4B1B6813F0020F48
:100D7C0003D02369012B40F04F814A4A136823F0BA
:100D8C00F803616943EAC1031360236813F0080F89
:100D9C0033D0A369002B5CD0434B0122C3F88024D1
:100DAC00FFF726FF05463F4B5B6A13F0020F21D17C
:100DBC00FFF71EFF401B0228F5D903202FE1394A0B
:100DCC00136823F0F803616943EAC1031360DCE79D
:100DDC00354B00221A60FFF70BFF0546314B1B68A1
:100DEC0013F0020FD1D0FFF703FF401B0228F5D9F7
:100DFC00032014E10120FFF701FF236813F0040F17
:100E0C0000F09680274BDB6913F0805F34D1254BC3
:100E1C00DA6942F08052DA61DB6903F080530193A6
:100E2C00019B0125214B1B6813F4807F26D0E368BE
:100E3C00012B3DD0002B53D103F1804303F5043338
:100E4C001A6A22F001021A621A6A22F004021A6269
:100E5C0033E0154B0022C3F88024FFF7C9FE05468A
:100E6C00104B5B6A13F0020FC7D0FFF7C1FE401B9B
:100E7C000228F5D90320D2E00025D3E70B4A1368EA
:100E8C0043F480731360FFF7B3FE0646074B1B68F1
:100E9C0013F4807FCBD1FFF7ABFE801B6428F5D910
:100EAC000320BCE0001002400000424200700040F1
:100EBC005F4A136A43F001031362E36833B3FFF72D
:100ECC0097FE06465A4B1B6A13F0020F2FD1FFF701
:100EDC008FFE801B41F288339842F3D903209EE0A9
:100EEC00052B09D0524B1A6A22F001021A621A6AB7
:100EFC0022F004021A62E0E74D4B1A6A42F0040237
:100F0C001A621A6A42F001021A62D6E7FFF770FE03
:100F1C000646474B1B6A13F0020F08D0FFF768FE1A
:100F2C00801B41F288339842F3D9032077E0E5B96E
:100F3C00E369002B72D03E4A526802F00C02082A78
:100F4C0056D0022B17D03B4B00221A66FFF750FEEF
:100F5C000446374B1B6813F0007F47D0FFF748FE61
:100F6C00001B0228F5D9032059E0314AD36923F03C
:100F7C008053D361DCE72F4B00221A66FFF738FE53
:100F8C0005462B4B1B6813F0007F06D0FFF730FE95
:100F9C00401B0228F5D9032041E0236AB3F5803FBA
:100FAC001AD023494B6823F47413226A606A0243F3
:100FBC0013434B601F4B01221A66FFF719FE0446C0
:100FCC001B4B1B6813F0007F0ED1FFF711FE001BAB
:100FDC000228F5D9032022E0154A536823F4003384
:100FEC00A1680B435360DCE7002018E0002016E0FA
:100FFC00012B16D00E4B5B6803F48031226A9142B0
:10100C0011D103F47013626A93420ED1002006E0F2
:10101C0001207047012002E0012000E0002002B016
:10102C0070BD0120FBE70120F9E70120F7E700BFC5
:10103C0000100240000042420F4B5B6803F00C02B0
:10104C00082A01D00D487047C3F383420C49885CD1
:10105C0013F4803F0BD0084B5B68C3F34043094A41
:10106C00D35C064A02FB00F0B0FBF3F07047064B72
:10107C0003FB00F0704700BF0010024000127A0022
:10108C00EC150008FC15000800093D00002800F0D4
:10109C00A08070B50D460446524B1B6803F0070345
:1010AC008B420BD24F4A136823F007030B43136098
:1010BC00136803F007038B4240F08D80236813F014
:1010CC00020F17D013F0040F04D0474A536843F4AF
:1010DC00E0635360236813F0080F04D0424A53684E
:1010EC0043F460535360404A536823F0F003A16803
:1010FC000B435360236813F0010F31D06368012B4D
:10110C0020D0022B25D0384A126812F0020F64D07E
:10111C0035494A6822F0030213434B60FFF768FD20
:10112C000646314B5B6803F00C036268B3EB820F2D
:10113C0016D0FFF75DFD801B41F288339842F0D941
:10114C00032045E0284A126812F4003FE0D1012048
:10115C003EE0254A126812F0007FD9D1012037E019
:10116C00204B1B6803F00703AB420AD91D4A1368D6
:10117C0023F007032B431360136803F00703AB4200
:10118C002DD1236813F0040F06D0174A536823F4AB
:10119C00E063E1680B435360236813F0080F07D03A
:1011AC00114A536823F46053216943EAC103536025
:1011BC00FFF742FF0C4B5B68C3F303130B4AD35C82
:1011CC00D8400B4B18600B4B1868FFF7CDFC002078
:1011DC0070BD012070470120FAE70120F8E70120DB
:1011EC00F6E700BF00200240001002400016000885
:1011FC00080000200400002070B582B00024A44632
:10120C00A6E0804DAA4210D007D97F4DAA420CD03F
:10121C0005F58035AA4208D013E0A5F58015AA4241
:10122C0003D005F57025AA4207D18A68002A58D048
:10123C00012A51D04361082403E0A5F58015AA4288
:10124C00F3D0BEF1FF0F4ED80646BEF1FF0F4CD8BF
:10125C004FEA8C0233680F25954023EA050304FA04
:10126C0002F2134333604B6813F0805F6ED0674B10
:10127C009A6942F001029A619B6903F001030193A0
:10128C00019B4FEA9C02951C614B53F825600CF0B6
:10129C0003039D000F23AB4026EA03065D4B9842E7
:1012AC0029D003F58063984200F08E8003F58063AB
:1012BC00984200F08B8003F58063984219D0042388
:1012CC001AE0CC68BDE7CC680434BAE7CC680834C3
:1012DC00B7E7CC680C34B4E703610824B1E7002409
:1012EC00AFE70424ADE7061DAFE7ACF108029200AE
:1012FC00B0E7032300E00023AB4033430232444DFC
:10130C0045F822304B6813F4801F61D0424A936831
:10131C0043EA0E0393604B6813F4001F5ED03E4A01
:10132C00D36843EA0E03D3604B6813F4003F5BD0E1
:10133C00394A536843EA0E0353604B6813F4803FF9
:10134C0058D0354A136843EA0E0313600CF1010CB4
:10135C000A6832FA0CF353D0012303FA0CF302EAB5
:10136C00030E33EA0202F1D14A68122A3FF649AF62
:10137C00122A3FF666AF01A555F822F03712000885
:10138C00CF120008D9120008EB1200084F12000807
:10139C004F1200084F1200084F1200084F1200089D
:1013AC004F1200084F1200084F1200084F1200088D
:1013BC004F1200084F1200084F1200084F1200087D
:1013CC00D3120008DF120008012395E7022393E7EC
:1013DC00114A936823EA0E0393609CE70E4AD36884
:1013EC0023EA0E03D3609FE70B4A536823EA0E03EC
:1013FC005360A2E7084A136823EA0E031360A5E7BB
:10140C0002B070BD0000221000003110001002402C
:10141C0000000140000801400004014083681942AB
:10142C0001D001207047002070470AB1016170475C
:10143C00090401617047C36801EA030221EA030150
:10144C0041EA024101617047074AD36823F4E06323
:10145C001B041B0C000200F4E060034343F0BF6369
:10146C0043F40033D360704700ED00E000B5194B36
:10147C00DB68C3F30223C3F1070CBCF1040F28BFD4
:10148C004FF0040C03F1040EBEF1060F18D9033B08
:10149C004FF0FF3E0EFA0CFC21EA0C0199400EFABB
:1014AC0003F322EA0303194300280BDB0901C9B239
:1014BC0000F1604000F5614080F800135DF804FB1A
:1014CC000023E5E700F00F000901C9B2024B1954E3
:1014DC00F4E700BF00ED00E014ED00E0002807DBAE
:1014EC0000F01F02400901239340024A42F82030C9
:1014FC00704700BF00E100E00138B0F1807F0BD2F3
:10150C004FF0E0235861054AF02182F823100020A7
:10151C00986107221A6170470120704700ED00E0C6
:10152C0070470000FFF7FCFF0B480C490C4A0023E6
:10153C0002E0D458C4500433C4188C42F9D3094A7D
:10154C00094C002301E013600432A242FBD300F0EB
:10155C000FF8FEF7C5FE7047000000200C000020BD
:10156C00181600080C00002088000020FEE7000080
:10157C0070B500260C4D0D4C641BA410A64209D16D
:10158C0000F022F800260A4D0A4C641BA410A64257
:10159C0005D170BD55F8043B98470136EEE755F878
:1015AC00043B98470136F2E71016000810160008A5
:1015BC00101600081416000803460244934200D18A
:1015CC00704703F8011BF9E7F8B500BFF8BC08BC7D
:1015DC009E467047F8B500BFF8BC08BC9E467047E5
:1015EC0002030405060708090A0B0C0D0E0F101058
:1015FC0001020000000000000000000001020304D2
:04160C0006070809BC
:04161000310100089C
:041614000D010008BC
:0C16180007010000100000000024F40096
:0400000508001531A9
:00000001FF
